:020000040800F2
:1000000000500020350E0008390D0008410D000891
:10001000490D0008510D0008590D000800000000AE
:10002000000000000000000000000000610D00085A
:100030006D0D000800000000790D0008850D000816
:100040007D0E00087D0E00087D0E00087D0E000864
:100050007D0E00087D0E0008910D00089F0D000820
:100060007D0E0008AD0D00087D0E00087D0E000815
:100070007D0E00087D0E00087D0E00087D0E000834
:100080007D0E00087D0E00087D0E00087D0E000824
:100090007D0E00087D0E00087D0E00087D0E000814
:1000A0007D0E00087D0E00087D0E00087D0E000804
:1000B0007D0E00087D0E00087D0E00087D0E0008F4
:1000C0007D0E00087D0E00087D0E00087D0E0008E4
:1000D0007D0E00087D0E00087D0E00087D0E0008D4
:1000E0007D0E00087D0E00087D0E00080000000057
:1000F0000000000000000000000000000000000000
:0C01000000000000000000005FF808F1A3
:10010C0010B5054C237833B9044B13B10448AFF345
:10011C0000800123237010BD84000020000000002B
:10012C00582F000808B5034B1BB103490348AFF324
:10013C00008008BD0000000088000020582F000837
:10014C0080B584B000AF03460A46FB711346BB7101
:10015C00FB791B01FB73FA7BBB791343FB730F4BCE
:10016C001B785BB2DB005AB297F90F3013435BB2CA
:10017C00FB73FB7B43F00403FB73094AFB7BD360EB
:10018C00012000F0D9FEFB7B23F00403FB73044A2F
:10019C00FB7BD36000BF1037BD4680BD0000002044
:1001AC000008014080B584B000AF0346FB71FB79B9
:1001BC001B09FB73FB7903F00F03BB73FB7B002163
:1001CC001846FFF7BDFFBB7B00211846FFF7B8FFB1
:1001DC00FB79012B02D0FB79022B02D1022000F01B
:1001EC00ABFE00BF1037BD4680BD80B584B000AFFC
:1001FC000346FB71FB791B09FB73FB7903F00F03BF
:10020C00BB73FB7B01211846FFF79AFFBB7B0121D7
:10021C001846FFF795FF00BF1037BD4680BD80B56F
:10022C0000AF322000F088FE00210320FFF788FF8A
:10023C00052000F081FE00210320FFF781FF012043
:10024C0000F07AFE00210320FFF77AFF012000F076
:10025C0073FE00210220FFF773FF2820FFF7A2FF97
:10026C000C20FFF79FFF0620FFF79CFF0120FFF7F4
:10027C0099FF022000F060FE00BF80BD80B582B007
:10028C0000AF786006E07B685A1C7A601B781846D1
:10029C00FFF7ABFF7B681B78002BF4D100BF00BFCE
:1002AC000837BD4680BD80B584B000AF03460A4612
:1002BC00FB711346BB71FB79002B02D0012B03D0D1
:1002CC0005E00023FB7304E04023FB7301E00023F3
:1002DC00FB73FA7BBB791344FB73FB7B63F07F03EB
:1002EC00DBB21846FFF75EFF00BF1037BD4680BD7E
:1002FC0080B500AF0120FFF755FF022000F01CFE77
:10030C0000BF80BD80B584B000AF0346FB8000F019
:10031C0009FEF860FB88082B0CD1184B1B68FA6897
:10032C00D31AFA2B25D9164B01221A70134AFB68E3
:10033C0013601EE0FB88012B0CD1124B1B68FA6872
:10034C00D31AFA2B15D9104B01221A700D4AFB68DF
:10035C0013600EE0FB88022B0BD10C4B1B68FA6868
:10036C00D31A322B05D90A4B01221A70074AFB68A3
:10037C00136000BF1037BD4680BD00BFC000002019
:10038C00B4000020C4000020B5000020C8000020EC
:10039C00B600002080B586B000AF00F06BFD00F019
:1003AC00C3FA00F0AFFB00F005FB0021964801F00A
:1003BC00EFFC0421944801F0EBFC0821924801F079
:1003CC00E7FC0C21904801F0E3FCFFF728FF00F05C
:1003DC00A9FD03468D4A136000F0A4FD03468C4A28
:1003EC00136001237B618B4B1B78DBB2012B1AD181
:1003FC00884B00221A7000F095FD0346834A136067
:10040C00854B1B68002B0ED1844B1B68002B0AD12B
:10041C00834B1B68632B06DC814B1B680533804ABE
:10042C00136001237B617F4B1B78DBB2012B2FD137
:10043C007C4B00221A7000F075FD0346734A136062
:10044C00764B1B68002B23D1754B1B68002B11D1ED
:10045C00FFF74EFF00210020FFF725FF724B1B68B2
:10046C001846FFF70BFF4FF47A7000F065FD01237F
:10047C007B610DE0684B1B680133674A1360664B68
:10048C001B68052B02DD644B01221A6001237B6182
:10049C00664B1B78DBB2012B40F0EA80634B0022E9
:1004AC001A7000F03FFD0346584A13605A4B1B6804
:1004BC00002B00F0DD80594B1B68012B00F0D8801D
:1004CC00554B1B68052B2AD1554B1B68584A13609A
:1004DC00534B00221A60504B00221A60FFF708FFA2
:1004EC0000210020FFF7DFFE524B1B681846FFF778
:1004FC00C5FE4F4B1A683B464F49184602F076F83A
:10050C0000210120FFF7CFFE3B461846FFF7B6FE51
:10051C004FF4FA6000F010FD01237B61A8E03E4B24
:10052C001B68002B40F3A4803B4B1B68042B00F38F
:10053C009F80394B1B68013B404A52F82330FB60CB
:10054C0000233B61344B1B68012B09D110213C4823
:10055C0000F0A8FF0346002B2BD101233B6128E0C0
:10056C002D4B1B68022B09D12021354800F09AFF36
:10057C000346002B1DD101233B611AE0264B1B685F
:10058C00032B09D140212E4800F08CFF0346002B91
:10059C000FD101233B610CE01F4B1B68042B08D1CE
:1005AC008021274800F07EFF0346002B01D1012358
:1005BC003B613B69002B0FD1FFF79AFE0021002015
:1005CC00FFF771FE1F48FFF759FE40F2DC5000F0B8
:1005DC00B3FC01237B614BE0114B1B68FA689A4218
:1005EC0034DDFFF785FE00210020FFF75CFE164B83
:1005FC001B681846FFF742FE40F2DC5000F09CFCF2
:10060C0001237B6134E000BFF4000020B80000201F
:10061C00BC000020B4000020A4000020AC0000208E
:10062C00A0000020B500002014000020B60000201F
:10063C00A800002010000020CC2F0008180000207B
:10064C00000C0140D02F00080C0000209F4B1A68B2
:10065C00FB68D31A9E4A13609C4B00221A609D4B78
:10066C001B689D4A13609D4B01221A6000237B611D
:10067C009A4B1B68012B74D1FFF73AFE0021002026
:10068C00FFF711FE9648FFF7F9FD934B1B68012B02
:10069C0004D1944B4FF6FF725A6319E08E4B1B68D2
:1006AC00022B04D18F4B4FF6FF729A6310E08A4BEA
:1006BC001B68032B04D18B4B4FF6FF72DA6307E0F8
:1006CC00854B1B68042B03D1864B4FF6FF721A64C3
:1006DC0041F2883000F030FC824B00225A63814B8F
:1006EC0000229A637F4B0022DA637E4B00221A644D
:1006FC00FFF795FDFFF7FCFD00210020FFF7D3FD70
:10070C007948FFF7BBFD724B1B681A46774978484E
:10071C0001F06CFF00210120FFF7C5FD7448FFF7C5
:10072C00ADFD40F6B83000F007FC6A4B00221A60B1
:10073C006A4B00221A60684B00221A60644B00223C
:10074C001A6001237B6100F0EDFB0346694A1360DC
:10075C00694B00221A70694B00221A70684B0022F8
:10076C001A705A4B1B68002B39DD5C4B1B68002B35
:10077C0035D100F0D7FB02465E4B1B68D31A42F210
:10078C00107293422BD9514B1B68514A13604F4B3B
:10079C0000221A604F4B00221A60FFF7A9FD0021BE
:1007AC000020FFF780FD5748FFF768FD484B1B689A
:1007BC001A4655494E4801F019FF00210120FFF758
:1007CC0072FD4B48FFF75AFD40F6B83000F0B4FB11
:1007DC0001237B6100F0A6FB0346464A13607B694C
:1007EC00002B09D100F09EFB0246484B1B68D31A24
:1007FC00B3F5FA7F7FF6F7AD384B1B68002B7FF40F
:10080C00F2ADFFF775FD334B1B68002B17D12F4B47
:10081C001B681A463E493F4801F0E8FE00210020C3
:10082C00FFF741FD3B48FFF729FD00210120FFF7B1
:10083C003AFD394B1B681846FFF720FD3EE0254B6F
:10084C001B68052B17D1214B1B681A4630493148C0
:10085C0001F0CCFE00210020FFF725FD2D48FFF70D
:10086C000DFD00210120FFF71EFD2C4B1B681846C7
:10087C00FFF704FD22E0154B1B681A462449254856
:10088C0001F0B4FE134B1B6803F14002114B1B68C3
:10089C00013B234951F823302249154801F0A6FEAB
:1008AC0000210020FFF7FFFC1A48FFF7E7FC0021AE
:1008BC000120FFF7F8FC0E48FFF7E0FC00237B61FA
:1008CC0000F030FB0346114A13608CE5A0000020B9
:1008DC00A8000020A4000020B0000020AC000020E4
:1008EC00DC2F0008002C0140F02F0008003000081D
:1008FC00E0000020B8000020B4000020B50000206B
:10090C00B60000200C30000818300008BC00002095
:10091C0024300008CC000020040000200800002037
:10092C00180000203030000880B590B000AF07F1FF
:10093C00180328220021184601F07AFE3B1D0022E4
:10094C001A605A609A60DA601A610123BB614FF435
:10095C008033FB6100233B620123BB6202237B6378
:10096C004FF48033BB634FF4E013FB6307F11803C0
:10097C00184600F0DFFD0346002B01D000F04CF9C7
:10098C000F237B600223BB600023FB604FF480636A
:10099C003B6100237B613B1D0221184601F04CF8A2
:1009AC000346002B01D000F037F900BF4037BD469D
:1009BC0080BD000080B592B000AF07F1400300226B
:1009CC001A605A6007F1240300221A605A609A6078
:1009DC00DA601A615A619A613B1D20220021184687
:1009EC0001F026FE454B464A1A60444B00225A60E1
:1009FC00424B00229A60414B4FF6FF72DA603F4B3C
:100A0C0000221A613D4B00225A613C4B00229A6134
:100A1C003A4801F06DF90346002B01D000F0FCF8C8
:100A2C0000233B6400237B6407F1400319463348E1
:100A3C0001F02CFD0346002B01D000F0EDF86023F3
:100A4C007B620023BB620023FB6200233B63002319
:100A5C007B630023BB630023FB6307F124030022A9
:100A6C001946264801F036FA0346002B01D000F057
:100A7C00D3F807F1240304221946204801F02AFA7E
:100A8C000346002B01D000F0C7F807F1240308221D
:100A9C0019461A4801F01EFA0346002B01D000F04B
:100AAC00BBF807F124030C221946144801F012FA82
:100ABC000346002B01D000F0AFF800237B6000232D
:100ACC00BB600023FB6000233B6100237B614FF480
:100ADC000053BB6100233B623B1D1946074801F0E4
:100AEC0033FD0346002B01D000F096F8034800F0CC
:100AFC00E9F800BF4837BD4680BD00BFF4000020B8
:100B0C00002C014080B588B000AF07F11003002223
:100B1C001A605A609A60DA603B4B9B693A4A43F020
:100B2C0020039361384B9B6903F02003FB60FB6847
:100B3C00354B9B69344A43F004039361324B9B69F8
:100B4C0003F00403BB60BB682F4B9B692E4A43F038
:100B5C00080393612C4B9B6903F008037B607B6853
:100B6C000022F521294800F0B4FCF5233B61012358
:100B7C007B610023BB610223FB6107F11003194663
:100B8C00224800F00BFB08233B61214B7B610123C6
:100B9C00BB6107F1100319461C4800F0FFFA032350
:100BAC003B611B4B7B610123BB6107F110031946B1
:100BBC00184800F0F3FAF0233B6100237B6101231A
:100BCC00BB6107F110031946124800F0E7FA002246
:100BDC000021062000F0ABFA062000F0C4FA002237
:100BEC000021072000F0A3FA072000F0BCFA002235
:100BFC000021092000F09BFA092000F0B4FA00BF94
:100C0C002037BD4680BD00BF0010024000080140E7
:100C1C0000002110000C014080B400AF72B600BF80
:100C2C0000BFFDE780B485B000AF154B9B69144A3B
:100C3C0043F001039361124B9B6903F00103BB600A
:100C4C00BB680F4BDB690E4A43F08053D3610C4BEE
:100C5C00DB6903F080537B607B680A4B5B68FB604D
:100C6C00FB6823F0E063FB60FB6843F08063FB6090
:100C7C00044AFB68536000BF1437BD4680BC704704
:100C8C00001002400000014080B485B000AF7860D5
:100C9C007B681B68094A93420BD1094B9B69084A34
:100CAC0043F400639361064B9B6903F40063FB60A0
:100CBC00FB6800BF1437BD4680BC7047002C014058
:100CCC000010024080B588B000AF786007F11003C7
:100CDC0000221A605A609A60DA607B681B68104ABE
:100CEC00934218D10F4B9B690E4A43F00403936156
:100CFC000C4B9B6903F00403FB60FB684FF47063BF
:100D0C003B6102237B610223FB6107F1100319464F
:100D1C00054800F043FA00BF2037BD4680BD00BF38
:100D2C00002C0140001002400008014080B400AFCC
:100D3C0000BFFDE780B400AF00BFFDE780B400AF9B
:100D4C0000BFFDE780B400AF00BFFDE780B400AF8B
:100D5C0000BFFDE780B400AF00BFBD4680BC70474C
:100D6C0080B400AF00BFBD4680BC704780B400AFFC
:100D7C0000BFBD4680BC704780B500AF00F0C0F826
:100D8C0000BF80BD80B500AF012000F0BBFB00BFF1
:100D9C0080BD80B500AF022000F0B4FB00BF80BD69
:100DAC0080B500AF082000F0ADFB00BF80BD000097
:100DBC0080B586B000AF7860144A154BD31A7B61AE
:100DCC007B693B61134B1B68002B02D1114B124A00
:100DDC001A60104B1A687B6813443A699A4207D21E
:100DEC0001F02EFC03460C221A604FF0FF3309E091
:100DFC00084B1B68FB60074B1A687B681344054A59
:100E0C001360FB6818461837BD4680BD00500020A3
:100E1C00000400003C0100209002002080B400AFD0
:100E2C0000BFBD4680BC7047FFF7F8FF0B480C496C
:100E3C000C4A002302E0D458C4500433C4188C422A
:100E4C00F9D3094A094C002301E013600432A24291
:100E5C00FBD301F0FBFBFFF79DFA7047000000206D
:100E6C0084000020A0300008840000208C020020A8
:100E7C00FEE7000080B500AF084B1B68074A43F043
:100E8C0010031360032000F047F90F2000F008F85E
:100E9C00FFF7C8FE0023184680BD00BF00200240AB
:100EAC0080B582B000AF7860124B1A68124B1B7879
:100EBC0019464FF47A73B3FBF1F3B2FBF3F3184614
:100ECC0000F05FF90346002B01D001230EE07B6894
:100EDC000F2B0AD8002279684FF0FF3000F027F969
:100EEC00064A7B681360002300E00123184608378C
:100EFC00BD4680BD28000020300000202C000020C2
:100F0C0080B400AF054B1B781A46054B1B68134485
:100F1C00034A136000BFBD4680BC70473000002000
:100F2C004001002080B400AF024B1B681846BD4640
:100F3C0080BC70474001002080B584B000AF786061
:100F4C00FFF7F0FFB8607B68FB60FB68B3F1FF3F15
:100F5C0005D00A4B1B781A46FB681344FB6000BF94
:100F6C00FFF7E0FF0246BB68D31AFA689A42F7D83B
:100F7C0000BF00BF1037BD4680BD00BF3000002051
:100F8C0080B485B000AF78607B6803F00703FB602A
:100F9C000C4BDB68BB60BA684FF6FF031340BB60B9
:100FAC00FB681A02BB68134343F0BF6343F400337E
:100FBC00BB60044ABB68D36000BF1437BD4680BC1D
:100FCC00704700BF00ED00E080B400AF044BDB685D
:100FDC001B0A03F007031846BD4680BC704700BFD0
:100FEC0000ED00E080B483B000AF0346FB7197F9CD
:100FFC000730002B0BDBFB7903F01F02064997F936
:10100C0007305B09012000FA02F241F8232000BFEF
:10101C000C37BD4680BC704700E100E080B483B063
:10102C0000AF03463960FB7197F90730002B0ADBE0
:10103C003B68DAB20C4997F907301201D2B20B4473
:10104C0083F800230AE03B68DAB20849FB7903F025
:10105C000F03043B1201D2B20B441A7600BF0C37BB
:10106C00BD4680BC704700BF00E100E000ED00E031
:10107C0080B489B000AFF860B9607A60FB6803F0A7
:10108C000703FB61FB69C3F10703042B28BF04238F
:10109C00BB61FB690433062B02D9FB69033B00E0FF
:1010AC0000237B614FF0FF32BB6902FA03F3DA4392
:1010BC00BB681A407B699A404FF0FF317B6901FA9B
:1010CC0003F3D9437B680B40134318462437BD46C2
:1010DC0080BC704780B582B000AF78607B68013B04
:1010EC00B3F1807F01D301230FE00A4A7B68013BF7
:1010FC0053600F214FF0FF30FFF790FF054B00229C
:10110C009A60044B07221A60002318460837BD4624
:10111C0080BD00BF10E000E080B582B000AF786009
:10112C007868FFF72DFF00BF0837BD4680BD80B53E
:10113C0086B000AF0346B9607A60FB7300237B6115
:10114C00FFF742FF78617A68B9687869FFF790FF1A
:10115C00024697F90F3011461846FFF75FFF00BFA4
:10116C001837BD4680BD80B582B000AF0346FB7119
:10117C0097F907301846FFF735FF00BF0837BD4613
:10118C0080BD80B582B000AF78607868FFF7A2FFB1
:10119C00034618460837BD4680BD000080B48BB0AE
:1011AC0000AF7860396000237B6200233B6269E109
:1011BC0001227B6A02FA03F3FB613B681B68FA6944
:1011CC001340BB61BA69FB699A4240F058813B6895
:1011DC005B689A4A93425ED0984A934275D8984A73
:1011EC00934258D0964A93426FD8964A934252D023
:1011FC00944A934269D8944A93424CD0924A93426F
:10120C0063D8924A934246D0904A93425DD8122BAF
:10121C002AD8122B59D801A252F823F0A312000895
:10122C007D1200088F120008D1120008D712000896
:10123C00D7120008D7120008D7120008D7120008DE
:10124C00D7120008D7120008D7120008D7120008CE
:10125C00D7120008D7120008D7120008D7120008BE
:10126C008512000899120008794A934213D02CE099
:10127C003B68DB683B6229E03B68DB6804333B621C
:10128C0024E03B68DB6808333B621FE03B68DB68AB
:10129C000C333B621AE03B689B68002B02D10423A1
:1012AC003B6213E03B689B68012B05D108233B6232
:1012BC007B68FA691A6109E008233B627B68FA696A
:1012CC005A6103E000233B6200E000BFBB69FF2BC7
:1012DC0001D87B6801E07B6804337B61BB69FF2B21
:1012EC0002D87B6A9B0002E07B6A083B9B003B6157
:1012FC007B691A680F213B6901FA03F3DB431A403F
:10130C00396A3B6901FA03F31A437B691A603B683B
:10131C005B6803F08053002B00F0B1804D4B9B6950
:10132C004C4A43F0010393614A4B9B6903F0010360
:10133C00BB60BB68484A7B6A9B08023352F8233077
:10134C00FB607B6A03F003039B000F2202FA03F39A
:10135C00DB43FA681340FB607B68404A934213D02E
:10136C007B683F4A93420DD07B683E4A934207D03C
:10137C007B683D4A934201D1032306E0042304E039
:10138C00022302E0012300E000237A6A02F0030248
:10139C0092009340FA681343FB602F497B6A9B08C9
:1013AC000233FA6841F823203B685B6803F480132E
:1013BC00002B06D02D4B9A682C49BB6913438B60CC
:1013CC0006E02A4B9A68BB69DB43284913408B60C3
:1013DC003B685B6803F40013002B06D0234BDA68E0
:1013EC002249BB691343CB6006E0204BDA68BB692A
:1013FC00DB431E491340CB603B685B6803F400334E
:10140C00002B06D0194B5A681849BB6913434B6023
:10141C0006E0164B5A68BB69DB43144913404B601A
:10142C003B685B6803F48033002B21D00F4B1A68A8
:10143C000E49BB6913430B6021E000BF0000321062
:10144C0000003110000022100000211000001210CA
:10145C000000111000100240000001400008014083
:10146C00000C014000100140001401400004014038
:10147C000B4B1A68BB69DB43094913400B607B6A51
:10148C0001337B623B681A687B6A22FA03F3002BF8
:10149C007FF48EAE00BF00BF2C37BD4680BC7047BA
:1014AC000004014080B485B000AF78600B467B80AF
:1014BC007B689A687B881340002B02D00123FB7356
:1014CC0001E00023FB73FB7B18461437BD4680BC40
:1014DC00704780B483B000AF78600B467B801346B6
:1014EC007B707B78002B03D07A887B681A6103E0D1
:1014FC007B881A047B681A6100BF0C37BD4680BC20
:10150C007047000080B582B000AF0346FB80084BEB
:10151C005A69FB881340002B06D0054AFB8853619F
:10152C00FB881846FEF7EEFE00BF0837BD4680BDAF
:10153C000004014080B586B000AF78607B68002B5A
:10154C0001D1012372E27B681B6803F00103002BBD
:10155C0000F08780924B5B6803F00C03042B0CD0DB
:10156C008F4B5B6803F00C03082B12D18C4B5B6820
:10157C0003F48033B3F5803F0BD1894B1B6803F424
:10158C000033002B6CD07B685B68002B68D1012387
:10159C004CE27B685B68B3F5803F06D1804B1B68DF
:1015AC007F4A43F4803313602EE07B685B68002B2A
:1015BC000CD17B4B1B687A4A23F480331360784B35
:1015CC001B68774A23F4802313601DE07B685B68FB
:1015DC00B3F5A02F0CD1724B1B68714A43F48023D6
:1015EC0013606F4B1B686E4A43F4803313600BE03F
:1015FC006B4B1B686A4A23F480331360684B1B687F
:10160C00674A23F4802313607B685B68002B13D03C
:10161C00FFF788FC386108E0FFF784FC02463B6961
:10162C00D31A642B01D9032300E25D4B1B6803F42E
:10163C000033002BF0D014E0FFF774FC386108E0A5
:10164C00FFF770FC02463B69D31A642B01D90323C4
:10165C00ECE1534B1B6803F40033002BF0D100E09A
:10166C0000BF7B681B6803F00203002B63D04C4B5C
:10167C005B6803F00C03002B0BD0494B5B6803F049
:10168C000C03082B1CD1464B5B6803F48033002BF6
:10169C0016D1434B1B6803F00203002B05D07B686B
:1016AC001B69012B01D00123C0E13D4B1B6823F0CA
:1016BC00F8027B685B69DB00394913430B603AE045
:1016CC007B681B69002B20D0364B01221A60FFF778
:1016DC0029FC386108E0FFF725FC02463B69D31A68
:1016EC00022B01D90323A1E12D4B1B6803F002034C
:1016FC00002BF0D02A4B1B6823F0F8027B685B6947
:10170C00DB00274913430B6015E0264B00221A60BF
:10171C00FFF708FC386108E0FFF704FC02463B6960
:10172C00D31A022B01D9032380E11D4B1B6803F054
:10173C000203002BF0D17B681B6803F00803002B1D
:10174C003AD07B689B69002B19D0174B01221A6089
:10175C00FFF7E8FB386108E0FFF7E4FB02463B6962
:10176C00D31A022B01D9032360E10D4B5B6A03F002
:10177C000203002BF0D0012000F09CFA1CE00A4B75
:10178C0000221A60FFF7CEFB38610FE0FFF7CAFBAF
:10179C0002463B69D31A022B08D9032346E100BF4A
:1017AC00001002400000424280044242924B5B6AAD
:1017BC0003F00203002BE9D17B681B6803F00403E0
:1017CC00002B00F0A6800023FB758B4BDB6903F02C
:1017DC008053002B0DD1884BDB69874A43F0805333
:1017EC00D361854BDB6903F08053BB60BB6801237D
:1017FC00FB75824B1B6803F48073002B18D17F4B55
:10180C001B687E4A43F480731360FFF78BFB3861CF
:10181C0008E0FFF787FB02463B69D31A642B01D91A
:10182C00032303E1754B1B6803F48073002BF0D08A
:10183C007B68DB68012B06D16F4B1B6A6E4A43F049
:10184C00010313622DE07B68DB68002B0CD16A4B23
:10185C001B6A694A23F001031362674B1B6A664AD1
:10186C0023F0040313621CE07B68DB68052B0CD1AE
:10187C00614B1B6A604A43F0040313625E4B1B6AA4
:10188C005D4A43F0010313620BE05B4B1B6A5A4A3F
:10189C0023F001031362584B1B6A574A23F00403CD
:1018AC0013627B68DB68002B15D0FFF73BFB3861BC
:1018BC000AE0FFF737FB02463B69D31A41F2883244
:1018CC00934201D90323B1E04B4B1B6A03F0020393
:1018DC00002BEED014E0FFF725FB38610AE0FFF790
:1018EC0021FB02463B69D31A41F28832934201D95B
:1018FC0003239BE0404B1B6A03F00203002BEED149
:10190C00FB7D012B05D13C4BDB693B4A23F080531B
:10191C00D3617B68DB69002B00F08780364B5B68FA
:10192C0003F00C03082B61D07B68DB69022B46D1DA
:10193C00334B00221A60FFF7F5FA386108E0FFF725
:10194C00F1FA02463B69D31A022B01D903236DE04D
:10195C00294B1B6803F00073002BF0D17B681B6ACA
:10196C00B3F5803F08D1244B5B6823F400327B68CD
:10197C009B68214913434B601F4B5B6823F4741223
:10198C007B68196A7B685B6A0B431B4913434B608A
:10199C001B4B01221A60FFF7C5FA386108E0FFF70C
:1019AC00C1FA02463B69D31A022B01D903233DE04D
:1019BC00114B1B6803F00073002BF0D035E0104B7B
:1019CC0000221A60FFF7AEFA386108E0FFF7AAFAB6
:1019DC0002463B69D31A022B01D9032326E0064B9E
:1019EC001B6803F00073002BF0D11EE07B68DB69F1
:1019FC00012B07D1012319E00010024000700040B8
:101A0C00600042420B4B5B68FB60FB6803F4803266
:101A1C007B681B6A9A4206D1FB6803F470127B68E0
:101A2C005B6A9A4201D0012300E000231846183764
:101A3C00BD4680BD0010024080B584B000AF786018
:101A4C0039607B68002B01D10123D0E06A4B1B6805
:101A5C0003F007033A689A4210D9674B1B6823F0CE
:101A6C00070265493B6813430B60634B1B6803F02B
:101A7C0007033A689A4201D00123B8E07B681B68DF
:101A8C0003F00203002B20D07B681B6803F00403D7
:101A9C00002B05D0594B5B68584A43F4E063536004
:101AAC007B681B6803F00803002B05D0534B5B6865
:101ABC00524A43F460535360504B5B6823F0F0027E
:101ACC007B689B684D4913434B607B681B6803F034
:101ADC000103002B40D07B685B68012B07D1474B7F
:101AEC001B6803F40033002B15D101237FE07B68C6
:101AFC005B68022B07D1414B1B6803F00073002B72
:101B0C0009D1012373E03D4B1B6803F00203002B4A
:101B1C0001D101236BE0394B5B6823F003027B6836
:101B2C005B68364913434B60FFF7FCF9F8600AE039
:101B3C00FFF7F8F90246FB68D31A41F28832934258
:101B4C0001D9032353E02D4B5B6803F00C027B6837
:101B5C005B689B009A42EBD1274B1B6803F0070391
:101B6C003A689A4210D2244B1B6823F00702224990
:101B7C003B6813430B60204B1B6803F007033A6868
:101B8C009A4201D0012332E07B681B6803F0040306
:101B9C00002B08D0194B5B6823F4E0627B68DB6890
:101BAC00164913434B607B681B6803F00803002B3A
:101BBC0009D0124B5B6823F460527B681B69DB0015
:101BCC000E4913434B6000F021F802460B4B5B6847
:101BDC001B0903F00F030A49CB5C22FA03F3094AF1
:101BEC001360094B1B681846FFF75AF90023184677
:101BFC001037BD4680BD00BF0020024000100240DF
:101C0C0040300008280000202C00002080B487B051
:101C1C0000AF0023FB600023BB6000237B6100232B
:101C2C007B6000233B611E4B5B68FB60FB6803F031
:101C3C000C03042B02D0082B03D027E0194B3B617B
:101C4C0027E0FB689B0C03F00F03174AD35C7B6007
:101C5C00FB6803F48033002B10D0114B5B685B0CDA
:101C6C0003F00103114AD35CBB607B680D4A03FB94
:101C7C0002F2BB68B2FBF3F37B6104E07B680C4AB5
:101C8C0002FB03F37B617B693B6102E0054B3B612B
:101C9C0000BF3B6918461C37BD4680BC704700BF6F
:101CAC000010024000127A0050300008603000082A
:101CBC0000093D0080B485B000AF78600A4B1B680A
:101CCC000A4AA2FB03235B0A7A6802FB03F3FB605C
:101CDC0000BFFB685A1EFA60002BF9D100BF00BF91
:101CEC001437BD4680BC704728000020D34D6210CD
:101CFC0080B582B000AF78607B68002B01D10123E6
:101D0C0041E07B6893F83D30DBB2002B06D17B6859
:101D1C00002283F83C207868FEF7B6FF7B6802222D
:101D2C0083F83D207B681A687B680433194610469B
:101D3C0000F092F97B68012283F846207B6801222F
:101D4C0083F83E207B68012283F83F207B680122C8
:101D5C0083F840207B68012283F841207B680122B4
:101D6C0083F842207B68012283F843207B680122A0
:101D7C0083F844207B68012283F845207B6801228C
:101D8C0083F83D20002318460837BD4680BD00006F
:101D9C0080B584B000AF786039603B68002B09D106
:101DAC007B6893F83E30DBB2012B14BF0123002378
:101DBC00DBB222E03B68042B09D17B6893F83F30FF
:101DCC00DBB2012B14BF01230023DBB215E03B680F
:101DDC00082B09D17B6893F84030DBB2012B14BF80
:101DEC0001230023DBB208E07B6893F84130DBB2BF
:101DFC00012B14BF01230023DBB2002B01D00123E4
:101E0C005EE03B68002B04D17B68022283F83E2005
:101E1C0013E03B68042B04D17B68022283F83F203B
:101E2C000BE03B68082B04D17B68022283F840202E
:101E3C0003E07B68022283F841207B681B68012247
:101E4C003968184600F0FEFA7B681B681E4A9342FC
:101E5C0007D17B681B685A6C7B681B6842F4004294
:101E6C005A647B681B68184A93420ED07B681B68C7
:101E7C00B3F1804F09D07B681B68144A934204D09D
:101E8C007B681B68124A934211D17B681B689B6864
:101E9C0003F00703FB60FB68062B10D07B681B6804
:101EAC001A687B681B6842F001021A6007E07B68C5
:101EBC001B681A687B681B6842F001021A600023D9
:101ECC0018461037BD4680BD002C01400004004070
:101EDC000008004080B586B000AFF860B9607A6049
:101EEC000023FB75FB6893F83C30012B01D10223D6
:101EFC00AEE0FB68012283F83C207B680C2B00F2DF
:101F0C009F8001A252F823F0491F00084D200008C1
:101F1C004D2000084D200008891F00084D200008A6
:101F2C004D2000084D200008CB1F00084D20000854
:101F3C004D2000084D2000080B200008FB681B6892
:101F4C00B968184600F0F6F8FB681B689A69FB68DC
:101F5C001B6842F008029A61FB681B689A69FB686F
:101F6C001B6822F004029A61FB681B689969BB68C4
:101F7C001A69FB681B680A439A6164E0FB681B687A
:101F8C00B968184600F03CF9FB681B689A69FB6855
:101F9C001B6842F400629A61FB681B689A69FB68D3
:101FAC001B6822F480629A61FB681B689969BB68A4
:101FBC001B691A02FB681B680A439A6143E0FB68C1
:101FCC001B68B968184600F085F9FB681B68DA696C
:101FDC00FB681B6842F00802DA61FB681B68DA696F
:101FEC00FB681B6822F00402DA61FB681B68D96984
:101FFC00BB681A69FB681B680A43DA6123E0FB685B
:10200C001B68B968184600F0CFF9FB681B68DA69E1
:10201C00FB681B6842F40062DA61FB681B68DA69D2
:10202C00FB681B6822F48062DA61FB681B68D96963
:10203C00BB681B691A02FB681B680A43DA6102E081
:10204C000123FB7500BFFB68002283F83C20FB7D5D
:10205C0018461837BD4680BD80B485B000AF786097
:10206C0039607B681B68FB607B682F4A93420BD0FE
:10207C007B68B3F1804F07D07B682C4A934203D026
:10208C007B682B4A934208D1FB6823F07003FB60FA
:10209C003B685B68FA681343FB607B68224A934297
:1020AC000BD07B68B3F1804F07D07B681F4A9342FB
:1020BC0003D07B681E4A934208D1FB6823F440731B
:1020CC00FB603B68DB68FA681343FB60FB6823F03A
:1020DC0080023B685B691343FB607B68FA681A609B
:1020EC003B689A687B68DA623B681A687B689A621C
:1020FC007B680D4A934203D13B681A697B681A636B
:10210C007B6801225A617B681B6903F00103002B79
:10211C0005D07B681B6923F001027B681A6100BF44
:10212C001437BD4680BC7047002C014000040040B1
:10213C000008004080B487B000AF786039607B68DD
:10214C001B6A7B617B681B6A23F001027B681A6245
:10215C007B685B683B617B689B69FB60FB6823F079
:10216C007003FB60FB6823F00303FB603B681B6898
:10217C00FA681343FB607B6923F002037B613B68C5
:10218C009B687A6913437B617B681C4A93420CD130
:10219C007B6923F008037B613B68DB687A69134336
:1021AC007B617B6923F004037B617B68134A934258
:1021BC0011D13B6923F480733B613B6923F40073B9
:1021CC003B613B685B693A6913433B613B689B69C4
:1021DC003A6913433B617B683A695A607B68FA68D9
:1021EC009A613B685A687B685A637B687A691A62A1
:1021FC0000BF1C37BD4680BC704700BF002C01409F
:10220C0080B487B000AF786039607B681B6A7B61F3
:10221C007B681B6A23F010027B681A627B685B6820
:10222C003B617B689B69FB60FB6823F4E043FB60CC
:10223C00FB6823F44073FB603B681B681B02FA6865
:10224C001343FB607B6923F020037B613B689B6835
:10225C001B017A6913437B617B681D4A93420DD144
:10226C007B6923F080037B613B68DB681B017A6927
:10227C0013437B617B6923F040037B617B68144AC9
:10228C00934213D13B6923F480633B613B6923F494
:10229C0000633B613B685B699B003A6913433B619C
:1022AC003B689B699B003A6913433B617B683A69C5
:1022BC005A607B68FA689A613B685A687B689A63D3
:1022CC007B687A691A6200BF1C37BD4680BC7047B8
:1022DC00002C014080B487B000AF786039607B6817
:1022EC001B6A7B617B681B6A23F480727B681A62B1
:1022FC007B685B683B617B68DB69FB60FB6823F098
:10230C007003FB60FB6823F00303FB603B681B68F6
:10231C00FA681343FB607B6923F400737B613B68B1
:10232C009B681B027A6913437B617B681D4A93424D
:10233C000DD17B6923F400637B613B68DB681B0276
:10234C007A6913437B617B6923F480637B617B68CF
:10235C00144A934213D13B6923F480533B613B698C
:10236C0023F400533B613B685B691B013A691343DF
:10237C003B613B689B691B013A6913433B617B687A
:10238C003A695A607B68FA68DA613B685A687B681C
:10239C00DA637B687A691A6200BF1C37BD4680BC61
:1023AC00704700BF002C014080B487B000AF78604C
:1023BC0039607B681B6A3B617B681B6A23F4805223
:1023CC007B681A627B685B687B617B68DB69FB609E
:1023DC00FB6823F4E043FB60FB6823F44073FB6071
:1023EC003B681B681B02FA681343FB603B6923F4D0
:1023FC0000533B613B689B681B033A6913433B6189
:10240C007B680F4A934209D17B6923F480437B613B
:10241C003B685B699B017A6913437B617B687A69D2
:10242C005A607B68FA68DA613B685A687B681A64A0
:10243C007B683A691A6200BF1C37BD4680BC704786
:10244C00002C014080B487B000AFF860B9607A60AE
:10245C00BB6803F01F03012202FA03F37B61FB68E4
:10246C001A6A7B69DB431A40FB681A62FB681A6ABA
:10247C00BB6803F01F03796801FA03F31A43FB6886
:10248C001A6200BF1C37BD4680BC704780B485B053
:10249C0000AF786039607B6893F83C30012B01D138
:1024AC00022346E07B68012283F83C207B680222F1
:1024BC0083F83D207B681B685B68FB607B681B684E
:1024CC009B68BB60FB6823F07003FB603B681B6878
:1024DC00FA681343FB607B681B68FA685A607B6878
:1024EC001B68164A93420ED07B681B68B3F1804F71
:1024FC0009D07B681B68124A934204D07B681B6826
:10250C00104A93420CD1BB6823F08003BB603B683C
:10251C005B68BA681343BB607B681B68BA689A60D7
:10252C007B68012283F83D207B68002283F83C20E5
:10253C00002318461437BD4680BC7047002C014060
:10254C00000400400008004080B485B000AF786003
:10255C0039600023FB607B6893F83C30012B01D180
:10256C0002233DE07B68012283F83C20FB6823F0CA
:10257C00FF023B68DB681343FB60FB6823F440728B
:10258C003B689B681343FB60FB6823F480623B68E9
:10259C005B681343FB60FB6823F400623B681B68B9
:1025AC001343FB60FB6823F480523B681B691343A5
:1025BC00FB60FB6823F400523B685B691343FB60D0
:1025CC00FB6823F480423B68DB691343FB607B6848
:1025DC001B68FA685A647B68002283F83C2000234D
:1025EC0018461437BD4680BC704700000EB46FF01F
:1025FC00004110B500249DB01FAB029006900791CE
:10260C0004910948094953F8042B0591006802A963
:10261C0001931B9400F092F9029B1C701DB0BDE855
:10262C00104003B0704700BF340000200802FFFFC9
:10263C0003460244934200D1704703F8011BF9E7AB
:10264C00014B1868704700BF3400002070B500269D
:10265C000C4D0D4C641BA410A64209D100F076FC65
:10266C0000260A4D0A4C641BA410A64205D170BD6D
:10267C0055F8043B98470136EEE755F8043B98476C
:10268C000136F2E7983000089830000898300008BE
:10269C009C3000087047704738B50546002940D07B
:1026AC0051F8043C0C1F002BB8BFE41800F0DEF806
:1026BC001C4A136833B9636014602846BDE838407F
:1026CC0000F0DAB8A34208D9206821188B4201BF68
:1026DC0019685B6809182160EDE71A465B680BB155
:1026EC00A342FAD911685018A0420BD120680144BA
:1026FC00501883421160E0D118685B680844106080
:10270C005360DAE702D90C232B60D6E72068211836
:10271C008B4201BF19685B680918216063605460C3
:10272C00CBE738BD8802002070B50F4E0C463168DF
:10273C00054611B900F0A8FB30602146284600F090
:10274C00A3FB431C03D14FF0FF34204670BDC41CC7
:10275C0024F00304A042F8D0211A284600F094FB80
:10276C000130F2D1EFE700BF840200202DE9F843DD
:10277C00CD1C25F0030508350C2D38BF0C25002D7C
:10278C00064601DBA94204D90C2333600020BDE8C6
:10279C00F883DFF8D48000F069F8D8F800301C46D4
:1027AC0044BB29463046FFF7BFFF431C044658D1B3
:1027BC00D8F800402746002F43D1002C4BD023687B
:1027CC003946304604EB030900F05EFB814542D1EB
:1027DC00216830466D1A2946FFF7A6FF01303AD022
:1027EC0023682B442360D8F800305A6862BBC8F8C1
:1027FC0000700FE02268521B20D40B2A17D96119E4
:10280C00A342256018BF5960636808BFC8F8001060
:10281C0062514B60304600F02FF804F10B00231D81
:10282C0020F00700C21A1CBF1B1AA350AFE7626846
:10283C00A3420CBFC8F800205A60EBE7234664683B
:10284C00AEE73C467F68B6E71A465B68A342FBD10D
:10285C0000235360DEE70C233046336000F00CF8A5
:10286C0094E70560D6E700BF880200200148FFF717
:10287C0011BF00BF800200200148FFF70CBF00BF52
:10288C00800200202DE9F0471F468E688246BE422A
:10289C000C4690460B682DD8B1F90C2012F4906FB1
:1028AC0026D06569096905EB4505A3EB010905EB24
:1028BC00D5757B1C4B446D109D4238BF1D4653058E
:1028CC0027D52946FFF752FF064660B34A462169D1
:1028DC0000F0F8FAA38923F4906343F08003A381FA
:1028EC0026614E4426603E466561A5EB0905A56050
:1028FC00BE4200D93E4632464146206800F0AAFA54
:10290C000020A3689B1BA360236833442360BDE8AD
:10291C00F0872A4600F0E4FA06460028E0D150463B
:10292C002169FFF7B9FE0C23CAF80030A3894FF0D8
:10293C00FF3043F04003A381E9E700002DE9F04F9D
:10294C0098468B8907461B060D4614469DB010D53C
:10295C000B6973B94021FFF709FF2860286130B972
:10296C000C233B604FF0FF301DB0BDE8F08F4023CF
:10297C006B610023099320238DF8293030234FF00D
:10298C000109CDF80C80DFF898818DF82A302346A8
:10299C009A4613F8012B0AB1252AF9D1BAEB040B8C
:1029AC000BD05B46224629463846FFF76BFF0130B9
:1029BC0000F0A780099A5A4409929AF80030002B2B
:1029CC0000F09F8000234FF0FF32CDE905230AF180
:1029DC00010A049307938DF853301A935446052239
:1029EC0014F8011B4E4800F05FFA049AD8B9D006CF
:1029FC0044BF20238DF85330110744BF2B238DF88F
:102A0C0053309AF800302A2B15D0544600204FF042
:102A1C000A0C079A214611F8013B303B092B4BD984
:102A2C00B0B1079214E0A0EB080309FA03F31343C7
:102A3C00A2460493D2E7039B191D1B680391002B3C
:102A4C00BBBF5B4242F0020207930793B8BF0492EC
:102A5C0023782E2B0AD163782A2B32D1039B023494
:102A6C001A1D1B68039243EAE3730593DFF8B4A0C5
:102A7C0003225046217800F017FA38B14022049B0B
:102A8C00A0EB0A00824013430134049314F8011B99
:102A9C00062225488DF8281000F006FA002836D0BA
:102AAC00224B1BBB039B073323F007030833039311
:102ABC00099B334409936AE70C4601200CFB023254
:102ACC00A8E700234FF00A0C194601340593204661
:102ADC0010F8012B303A092A03D9002BC6D00591E6
:102AEC00C4E7044601230CFB0121F0E703AB009380
:102AFC002A4638460E4B04A9AFF30080421C06460A
:102B0C00D6D1AB895B063FF52DAF09982CE703AB0B
:102B1C0000932A463846064B04A900F07DF8EDE7F1
:102B2C0062300008683000086C30000800000000BB
:102B3C00912800082DE9F047164698468A680B69DB
:102B4C0007469342B8BF1346336091F843200C46B6
:102B5C00DDF820900AB1013333602368990642BF37
:102B6C00336802333360256815F0060506D104F18D
:102B7C00190AE36832689B1AAB422BDC94F8433099
:102B8C002268003B18BF0123920630D441463846D8
:102B9C0004F14302C847013023D02368226903F0B3
:102BAC000603042B14BF002533684FF0000608BF42
:102BBC00E56804F11A0408BFED1A54F8123C08BF7A
:102BCC0025EAE5759342C4BF9B1AED18B5421AD19C
:102BDC00002008E00123524641463846C8470130E0
:102BEC0003D14FF0FF30BDE8F0870135C1E730204D
:102BFC00E11881F843005A1C94F845102244023322
:102C0C0082F84310C2E70123224641463846C847A2
:102C1C000130E6D00136D9E72DE9FF470F7E91460A
:102C2C00782F80460C469A460C9E01F1430207D839
:102C3C00622F0AD8002F00F0D180582F00F0B880F6
:102C4C0004F1420684F842703AE0A7F16303152BB5
:102C5C00F6D801A151F823F0BD2C0008D12C0008A6
:102C6C004D2C00084D2C00084D2C00084D2C000854
:102C7C00D12C00084D2C00084D2C00084D2C0008C0
:102C8C004D2C0008CF2D0008FB2C0008892D0008C6
:102C9C004D2C00084D2C0008F12D00084D2C00087F
:102CAC00FB2C00084D2C00084D2C0008912D000821
:102CBC0033681A1D1B68326004F1420684F84230F6
:102CCC0001239CE033682068191D3160060601D58C
:102CDC001D6803E04506FBD5B3F90050002D03DA5F
:102CEC002D236D4284F843300A23584811E02168A3
:102CFC003368080653F8045B02D4490648BFADB2EA
:102D0C006F2F336014BF0A2308235048002184F826
:102D1C0043106668002EA66005DB21682E4321F067
:102D2C00040121604BD01646B5FBF3F103FB1157A0
:102D3C00C75D06F8017D2F46BB420D46F4D9082B22
:102D4C000BD12368DF0708D5236961689942DEBF80
:102D5C00302306F8013C06F1FF36921B22614B46EC
:102D6C0021464046CDF800A003AAFFF7E3FE013050
:102D7C004AD14FF0FF3004B0BDE8F087236843F030
:102D8C00200323607827324884F845702368316823
:102D9C001F0651F8045B02D45F0648BFADB2316028
:102DAC00D90744BF43F0200323601DB11023ADE7C6
:102DBC002648E9E7236823F020032360F6E716464C
:102DCC00BDE733682568181D616930602E061B68E5
:102DDC0001D5196002E06806FBD519800023164660
:102DEC002361BCE7336800211A1D32601E686268DB
:102DFC00304600F059F808B1801B606063682361AD
:102E0C00002384F84330AAE73246494640462369FA
:102E1C00D0470130ADD023689B0713D4E068039BE7
:102E2C009842B8BF1846A6E70123324649464046A9
:102E3C00D04701309DD00135E36803995B1AAB4252
:102E4C00F2DCEBE7002504F11906F5E77330000816
:102E5C0084300008884210B501EB020402D9844288
:102E6C00234607D8431EA14208D011F8012B03F8C2
:102E7C00012FF8E7014602448A4200D110BD13F835
:102E8C00014D02F8014DF7E738B50023054D044616
:102E9C0008462B60FDF78CFF431C02D12B6803B155
:102EAC00236038BD7C020020034610B5C9B2024431
:102EBC009342184601D1002003E0047801338C4280
:102ECC00F6D110BD0A44914200F1FF3300D1704796
:102EDC0010B511F8014B914203F8014FF9D110BD17
:102EEC002DE9F041074614460D4621B91146BDE8BF
:102EFC00F041FFF73BBC2AB9FFF7CEFB254628462D
:102F0C00BDE8F08100F01AF88442064602D8B4EB12
:102F1C00500FF4D821463846FFF728FC804608B9F4
:102F2C004546ECE7B4422246294628BF3246FFF715
:102F3C00C9FF29463846FFF7AFFBF1E751F8043CCF
:102F4C00181F002BBCBF0B58C0187047F8B500BF3A
:102F5C00F8BC08BC9E467047F8B500BFF8BC08BC6E
:042F6C009E467047C6
:102F700043484F4F53452050524F4455435400004F
:102F800043414E43454C2050555243484153453FE1
:102F9000000000004E4F5420454E4F554748204DED
:102FA0004F4E4559000000004D4F4E4559205245A7
:102FB0005455524E45440000565549204C4F4E47FB
:102FC000204E4150205449454E0000002564000029
:102FD0004845542048414E470000000044414E47B8
:102FE000205452412048414E472E2E2E0000000012
:102FF0004D5541205448414E4820434F4E47000014
:103000004368616E67653A202564000054494D4568
:103010004F55542100000000547261206C61693AE0
:1030200020256400546F74616C3A20256400000010
:1030300025633A2050726963653A202564000000D8
:103040000000000000000000010203040607080958
:1030500002030405060708090A0B0C0D0E0F1010D9
:103060000102232D302B2000686C4C0065666745FB
:1030700046470030313233343536373839414243F0
:1030800044454600303132333435363738396162A1
:083090006364656600000000A6
:0430980031010008FA
:04309C000D0100081A
:1030A00001000000702F0008802F0008942F0008F6
:1030B000A82F0008B82F0008050000000A00000033
:1030C0000F0000000A00000000127A00100000004B
:1030D0000100000038000020000000004401002032
:1030E000AC010020140200200000000000000000DD
:1030F00000000000000000000000000000000000D0
:1031000000000000000000000000000000000000BF
:1031100000000000000000000000000000000000AF
:0431200000000000AB
:0400000508000E35AC
:00000001FF
