:020000040800F2
:1000000000500020E10D00085D0D0008630D0008A0
:10001000690D00086F0D0008750D00080000000054
:100020000000000000000000000000007B0D000840
:10003000870D000800000000930D00089F0D0008C8
:10004000290E0008290E0008290E0008290E0008B4
:10005000290E0008290E0008AB0D0008B90D000894
:10006000290E0008C70D0008290E0008290E0008F7
:10007000290E0008290E0008290E0008290E000884
:10008000290E0008290E0008290E0008290E000874
:10009000290E0008290E0008290E0008290E000864
:1000A000290E0008290E0008290E0008290E000854
:1000B000290E0008290E0008290E0008290E000844
:1000C000290E0008290E0008290E0008290E000834
:1000D000290E0008290E0008290E0008290E000824
:1000E000290E0008290E0008290E00080000000053
:1000F0000000000000000000000000000000000000
:0C01000000000000000000005FF808F1A3
:10010C0010B5054C237833B9044B13B10448AFF345
:10011C0000800123237010BD580000200000000057
:10012C001426000808B5034B1BB103490348AFF371
:10013C00008008BD000000005C00002014260008B0
:10014C0080B584B000AF03460A46FB711346BB7101
:10015C00FB791B01FB73FA7BBB791343FB730F4BCE
:10016C001B78DB005AB297F90F3013435BB2FB7369
:10017C00FB7B43F00403FB73094AFB7BD360012038
:10018C0000F0B0FEFB7B23F00403FB73044AFB7B03
:10019C00D36000BF1037BD4680BD00BF00000020FB
:1001AC000008014080B584B000AF0346FB71FB79B9
:1001BC001B09FB73FB7903F00F03BB73FB7B002163
:1001CC001846FFF7BDFFBB7B00211846FFF7B8FFB1
:1001DC00FB79012B02D0FB79022B02D1022000F01B
:1001EC0081FE00BF1037BD4680BD80B584B000AF26
:1001FC000346FB71FB791B09FB73FB7903F00F03BF
:10020C00BB73FB7B01211846FFF79AFFBB7B0121D7
:10021C001846FFF795FF00BF1037BD4680BD80B56F
:10022C0000AF322000F05EFE00210320FFF788FFB4
:10023C00052000F057FE00210320FFF781FF01206D
:10024C0000F050FE00210320FFF77AFF012000F0A0
:10025C0049FE00210220FFF773FF2820FFF7A2FFC1
:10026C000C20FFF79FFF0620FFF79CFF0120FFF7F4
:10027C0099FF022000F036FE00BF80BD80B582B031
:10028C0000AF786006E07B685A1C7A601B781846D1
:10029C00FFF7ABFF7B681B78002BF4D100BF00BFCE
:1002AC000837BD4680BD80B584B000AF03460A4612
:1002BC00FB711346BB71FB79002B02D0012B03D0D1
:1002CC0005E00023FB7304E04023FB7301E00023F3
:1002DC00FB73FA7BBB791344FB73FB7B63F07F03EB
:1002EC00DBB21846FFF75EFF00BF1037BD4680BD7E
:1002FC0080B500AF0120FFF755FF022000F0F2FDA2
:10030C0000BF80BD80B483B000AF0346FB71FB79A6
:10031C00002B03D0054B01221A7002E0034B002284
:10032C001A7000BF0C37BD4680BC7047000000201F
:10033C0080B582B000AF0346FB80FB88012B47D110
:10034C00754B1B68012B43D1744B1B680133734AEB
:10035C001360724B1B68012B08D1714B1B68714ADF
:10036C001360714B1B68714A136031E06B4B1B6857
:10037C00022B08D16A4B1B686A4A13606C4B1B68D2
:10038C006A4A136024E0654B1B68032B08D1644B4D
:10039C001B68644A1360674B1B68644A136017E060
:1003AC005E4B1B68042B08D15D4B1B685D4A1360C8
:1003BC00614B1B685D4A13600AE0584B01221A60BE
:1003CC00574B1B68574A1360574B1B68574A1360AF
:1003DC00FB88022B40F0D580504B1B68012B0CD0B6
:1003EC004E4B1B68022B08D04C4B1B68032B04D0C4
:1003FC004A4B1B68042B40F0C480474B1B68012BF5
:10040C0040F0BF804D4B1B68012BD4BF0123002350
:10041C00DBB21A46494B1A601021494801F018F812
:10042C0003461A46474B1A602021454801F010F844
:10043C0003461A46444B1A604021414801F008F823
:10044C0003461A46414B1A6080213D4801F000F8E2
:10045C0003461A463E4B1A60384B1B68012B13D1CE
:10046C002E4B1B68012B0FD1364B1B68012B0BD16C
:10047C00384B1B682B4A1360374B1B682B4A136095
:10048C00364B01221A607CE02C4B1B68012B13D1DC
:10049C00224B1B68022B0FD12B4B1B68012B0BD152
:1004AC002C4B1B681F4A13602B4B1B681F4A136095
:1004BC002A4B01221A6064E0204B1B68012B13D1DC
:1004CC00164B1B68032B0FD1204B1B68012B0BD138
:1004DC00204B1B68134A13601F4B1B68134A136095
:1004EC001E4B01221A604CE0144B1B68012B37D1B8
:1004FC000A4B1B68042B33D1154B1B68012B2FD1D6
:10050C00144B1B68074A1360134B1B68074A136094
:10051C00124B01221A6034E04800002074000020C5
:10052C0004000020400000200800002044000020AF
:10053C000C0000201000002030000020780000206B
:10054C00000C014084000020880000208C0000205A
:10055C00900000202000002014000020AC0000209F
:10056C00214B1B68214A1360214B1B68214A1360E5
:10057C00214B00221A60214B00221A60204B0122D1
:10058C001A60FB88082B2BD11B4B1B68012B0BD043
:10059C00194B1B68022B07D0174B1B68032B03D07E
:1005AC00154B1B68042B1BD1164B1B68012B17D149
:1005BC00154B01221A60154B01221A60144B0122B3
:1005CC001A60144B01221A60134B00221A60134B51
:1005DC0001221A600B4B00221A60094B02221A608E
:1005EC0000BF0837BD4680BD380000204000002009
:1005FC003C00002044000020740000207800002003
:10060C007C000020AC000020980000209C00002002
:10061C00A00000209400002048000020A80000202A
:10062C0080B500AF00F0FCFB00F080F900F06CFA34
:10063C0000F0C2F9FFF7F3FD0120FFF763FE08217C
:10064C00A14801F093FB00219F4801F08FFB04218E
:10065C009D4801F08BFB0C219B4801F087FB00218E
:10066C000020FFF720FE994B1B681846FFF706FE8B
:10067C0000210120FFF717FE954B1B681846FFF76A
:10068C00FDFD4FF4FA7000F02DFCFFF731FE914B9D
:10069C001B68012B2AD101224FF480518E4800F0A7
:1006AC00EEFE4FF47A7000F01DFC00224FF48051E6
:1006BC00894800F0E4FE00210020FFF7F4FD874B91
:1006CC001B681846FFF7DAFD00210120FFF7EBFD50
:1006DC00834B1B681846FFF7D1FD4FF4FA6000F00E
:1006EC0001FCFFF705FE7B4B00221A60794B1B685F
:1006FC00022B2FD17B4B00221A600CE04FF480515F
:10070C00754800F0D4FE642000F0ECFB754B1B68C0
:10071C000133744A1360734B1B68042BEEDD00220B
:10072C004FF480516C4800F0AAFE00210020FFF726
:10073C00BAFD6D4B1B681846FFF7A0FD0021012088
:10074C00FFF7B1FD694B1B681846FFF797FD614B2E
:10075C0000221A60664B1B68012B16D1654B1B6877
:10076C00012B12D1644B1B68012B0ED1634B4FF63E
:10077C00FF725A634FF42F7000F0B4FB5F4B0022F2
:10078C005A635D4B02221A604FE05D4B1B68012BD4
:10079C0016D1584B1B68022B12D1574B1B68012BDF
:1007AC000ED1564B4FF6FF729A634FF47A7000F0ED
:1007BC0099FB524B00229A634F4B02221A6034E091
:1007CC00504B1B68012B16D14A4B1B68032B12D1C3
:1007DC00494B1B68012B0ED1484B4DF2D862DA63A2
:1007EC004FF42F7000F07EFB444B0022DA63424B37
:1007FC0002221A6019E0444B1B68012B15D13D4BAA
:10080C001B68042B11D13C4B1B68012B0DD13B4BAE
:10081C004DF2D8621A644FF4617000F063FB374BF1
:10082C0000221A64344B02221A60334B1B68022BD1
:10083C0035D1314B00221A60344B01221A60344BF3
:10084C0000221A602B4B00221A60324B00221A60D5
:10085C00274B00221A602A4B00221A60294B0022D7
:10086C001A60294B00221A6000210020FFF71BFDA3
:10087C00294B1B681846FFF701FD00210120FFF7EB
:10088C0012FD264B1B681846FFF7F8FC41F2883026
:10089C0000F028FBFFF72CFD214B00221A60204BA7
:1008AC001B68002B07D11F4B1B68084A13601E4B9B
:1008BC001B68074A13600F4B1B68042B3FF7CFAE26
:1008CC00174B01221A60CAE6B0000020400000203D
:1008DC00440000207C000020000C0140240000207B
:1008EC0028000020A4000020200000201800002078
:1008FC009400002074000020A8000020002C01406F
:10090C00980000209C000020A0000020480000203F
:10091C00AC000020780000202C0000201C000020DF
:10092C0080000020340000200400002080B590B02E
:10093C0000AF07F1180328220021184601F037FEFA
:10094C003B1D00221A605A609A60DA601A6101231A
:10095C00BB614FF48033FB6100233B620123BB621C
:10096C0002237B634FF48033BB634FF4E013FB63D0
:10097C0007F11803184600F0CBFD0346002B01D0FD
:10098C0000F06CF90F237B600223BB600023FB603B
:10099C004FF480633B6100237B613B1D02211846B1
:1009AC0001F038F80346002B01D000F057F900BFD6
:1009BC004037BD4680BD000080B592B000AF07F156
:1009CC00400300221A605A6007F1240300221A60C7
:1009DC005A609A60DA601A615A619A613B1D202252
:1009EC000021184601F0E3FD454B464A1A60444B82
:1009FC0000225A60424B00229A60414B4FF6FF7224
:100A0C00DA603F4B00221A613D4B00225A613C4B8D
:100A1C0000229A613A4801F059F90346002B01D0A3
:100A2C0000F01CF900233B6400237B6407F14003B6
:100A3C001946334801F00CFD0346002B01D000F0A1
:100A4C000DF960237B620023BB620023FB62002351
:100A5C003B6300237B630023BB630023FB6307F131
:100A6C00240300221946264801F022FA0346002BE3
:100A7C0001D000F0F3F807F12403042219462048B2
:100A8C0001F016FA0346002B01D000F0E7F807F14D
:100A9C002403082219461A4801F00AFA0346002BCF
:100AAC0001D000F0DBF807F124030C22194614489E
:100ABC0001F0FEF90346002B01D000F0CFF8002323
:100ACC007B600023BB600023FB6000233B610023A1
:100ADC007B614FF40053BB6100233B623B1D194605
:100AEC00074801F013FD0346002B01D000F0B6F8C7
:100AFC00034800F0F9F800BF4837BD4680BD00BF81
:100B0C00B0000020002C014080B588B000AF07F188
:100B1C00100300221A605A609A60DA604B4B9B6992
:100B2C004A4A43F020039361484B9B6903F020032E
:100B3C00FB60FB68454B9B69444A43F0040393619B
:100B4C00424B9B6903F00403BB60BB683F4B9B6942
:100B5C003E4A43F0080393613C4B9B6903F0080346
:100B6C007B607B680022F521394800F088FC00226C
:100B7C004FF48051374800F082FCF5233B61012390
:100B8C007B610023BB610223FB6107F11003194653
:100B9C002F4800F0D9FA08233B612F4B7B610123CE
:100BAC00BB6107F110031946294800F0CDFA032365
:100BBC003B61294B7B610123BB6107F11003194693
:100BCC00244800F0C1FA4FF480533B6101237B6150
:100BDC000023BB610223FB6107F1100319461D487A
:100BEC0000F0B2FA70233B6100237B610223BB61EE
:100BFC0007F110031946174800F0A6FA80233B6151
:100C0C0000237B610023BB6107F1100319461148D7
:100C1C0000F09AFA00220021062000F05EFA06206D
:100C2C0000F077FA00220021072000F056FA072086
:100C3C0000F06FFA00220021092000F04EFA092082
:100C4C0000F067FA00BF2037BD4680BD001002409F
:100C5C0000080140000C01400000111080B400AFEE
:100C6C0072B600BFFEE7000080B483B000AF0E4B3D
:100C7C009B690D4A43F0010393610B4B9B6903F095
:100C8C0001037B607B68084BDB69074A43F08053A8
:100C9C00D361054BDB6903F080533B603B6800BFBD
:100CAC000C37BD4680BC70470010024080B485B044
:100CBC0000AF78607B681B68094A93420BD1094BE3
:100CCC009B69084A43F400639361064B9B6903F4E8
:100CDC000063FB60FB6800BF1437BD4680BC7047E7
:100CEC00002C01400010024080B588B000AF786045
:100CFC0007F1100300221A605A609A60DA607B6870
:100D0C001B68104A934218D10F4B9B690E4A43F053
:100D1C00040393610C4B9B6903F00403FB60FB68B9
:100D2C004FF470633B6102237B610223FB6107F18B
:100D3C0010031946054800F007FA00BF2037BD46DE
:100D4C0080BD00BF002C0140001002400008014093
:100D5C0080B400AFFEE780B400AFFEE780B400AF14
:100D6C00FEE780B400AFFEE780B400AFFEE780B4CE
:100D7C0000AF00BFBD4680BC704780B400AF00BF61
:100D8C00BD4680BC704780B400AF00BFBD4680BC80
:100D9C00704780B500AF00F089F800BF80BD80B50A
:100DAC0000AF012000F09CFB00BF80BD80B500AF00
:100DBC00022000F095FB00BF80BD80B500AF08207D
:100DCC0000F08EFB00BF80BD80B400AF00BFBD46FD
:100DDC0080BC7047FFF7F8FF0B480C490C4A002306
:100DEC0002E0D458C4500433C4188C42F9D3094AD5
:100DFC00094C002301E013600432A242FBD301F042
:100E0C00DFFBFFF70DFC70470000002058000020AE
:100E1C003C27000858000020FC000020FEE70000E2
:100E2C0080B500AF084B1B68074A43F010031360F2
:100E3C00032000F047F90F2000F008F8FFF714FF2B
:100E4C000023184680BD00BF0020024080B582B050
:100E5C0000AF7860124B1A68124B1B7819464FF48E
:100E6C007A73B3FBF1F3B2FBF3F3184600F05FF9BE
:100E7C000346002B01D001230EE07B680F2B0AD810
:100E8C00002279684FF0FF3000F027F9064A7B68A2
:100E9C001360002300E0012318460837BD4680BDCF
:100EAC004C000020540000205000002080B400AF03
:100EBC00054B1B781A46054B1B681344034A1360F9
:100ECC0000BFBD4680BC704754000020F8000020D5
:100EDC0080B400AF024B1B681846BD4680BC7047FF
:100EEC00F800002080B584B000AF7860FFF7F0FF09
:100EFC00B8607B68FB60FB68B3F1FF3F05D00A4B21
:100F0C001B781A46FB681344FB6000BFFFF7E0FF39
:100F1C000246BB68D31AFA689A42F7D800BF00BFE2
:100F2C001037BD4680BD00BF5400002080B485B092
:100F3C0000AF78607B6803F00703FB600C4BDB6849
:100F4C00BB60BA684FF6FF031340BB60FB681A0224
:100F5C00BB68134343F0BF6343F40033BB60044AE4
:100F6C00BB68D36000BF1437BD4680BC704700BF60
:100F7C0000ED00E080B400AF044BDB681B0A03F00B
:100F8C0007031846BD4680BC704700BF00ED00E06B
:100F9C0080B483B000AF0346FB7197F90730002B88
:100FAC000BDBFB7903F01F02064997F907305B094D
:100FBC00012000FA02F241F8232000BF0C37BD4695
:100FCC0080BC704700E100E080B483B000AF034602
:100FDC003960FB7197F90730002B0ADB3B68DAB2FA
:100FEC000C4997F907301201D2B20B4483F8002355
:100FFC000AE03B68DAB20849FB7903F00F03043BC3
:10100C001201D2B20B441A7600BF0C37BD4680BC1D
:10101C00704700BF00E100E000ED00E080B489B053
:10102C0000AFF860B9607A60FB6803F00703FB61FE
:10103C00FB69C3F10703042B28BF0423BB61FB69C5
:10104C000433062B02D9FB69033B00E000237B61D0
:10105C004FF0FF32BB6902FA03F3DA43BB681A4064
:10106C007B699A404FF0FF317B6901FA03F3D94356
:10107C007B680B40134318462437BD4680BC704731
:10108C0080B582B000AF78607B68013BB3F1807FA4
:10109C0001D301230FE00A4A7B68013B53600F2107
:1010AC004FF0FF30FFF790FF054B00229A60044B86
:1010BC0007221A60002318460837BD4680BD00BFC2
:1010CC0010E000E080B582B000AF78607868FFF780
:1010DC002DFF00BF0837BD4680BD80B586B000AF80
:1010EC000346B9607A60FB7300237B61FFF742FF14
:1010FC0078617A68B9687869FFF790FF024697F9CA
:10110C000F3011461846FFF75FFF00BF1837BD467A
:10111C0080BD80B582B000AF0346FB7197F90730F4
:10112C001846FFF735FF00BF0837BD4680BD80B5B8
:10113C0082B000AF78607868FFF7A2FF03461846CC
:10114C000837BD4680BD000080B48BB000AF78601E
:10115C00396000237B6200233B6269E101227B6AD8
:10116C0002FA03F3FB613B681B68FA691340BB612D
:10117C00BA69FB699A4240F058813B685B689A4AAD
:10118C0093425ED0984A934275D8984A934258D06D
:10119C00964A93426FD8964A934252D0944A9342BD
:1011AC0069D8944A93424CD0924A934263D8924A5B
:1011BC00934246D0904A93425DD8122B2AD8122BD8
:1011CC0059D801A252F823F04F1200082912000836
:1011DC003B1200087D1200088312000883120008DD
:1011EC00831200088312000883120008831200087F
:1011FC00831200088312000883120008831200086F
:10120C0083120008831200088312000831120008B0
:10121C0045120008794A934213D02CE03B68DB68F6
:10122C003B6229E03B68DB6804333B6224E03B68AB
:10123C00DB6808333B621FE03B68DB680C333B62C6
:10124C001AE03B689B68002B02D104233B6213E03D
:10125C003B689B68012B05D108233B627B68FA69CC
:10126C001A6109E008233B627B68FA695A6103E062
:10127C0000233B6200E000BFBB69FF2B01D87B68F9
:10128C0001E07B6804337B61BB69FF2B02D87B6A6E
:10129C009B0002E07B6A083B9B003B617B691A6800
:1012AC000F213B6901FA03F3DB431A40396A3B69AE
:1012BC0001FA03F31A437B691A603B685B6803F01D
:1012CC008053002B00F0B1804D4B9B694C4A43F08E
:1012DC00010393614A4B9B6903F00103BB60BB683C
:1012EC00484A7B6A9B08023352F82330FB607B6AC6
:1012FC0003F003039B000F2202FA03F3DB43FA68AB
:10130C001340FB607B68404A934213D07B683F4A92
:10131C0093420DD07B683E4A934207D07B683D4A8E
:10132C00934201D1032306E0042304E0022302E0EC
:10133C00012300E000237A6A02F00302920093403A
:10134C00FA681343FB602F497B6A9B080233FA68E7
:10135C0041F823203B685B6803F48013002B06D014
:10136C002D4B9A682C49BB6913438B6006E02A4BC2
:10137C009A68BB69DB43284913408B603B685B6808
:10138C0003F40013002B06D0234BDA682249BB6907
:10139C001343CB6006E0204BDA68BB69DB431E4984
:1013AC001340CB603B685B6803F40033002B06D022
:1013BC00194B5A681849BB6913434B6006E0164B2E
:1013CC005A68BB69DB43144913404B603B685B684C
:1013DC0003F48033002B21D00F4B1A680E49BB69E4
:1013EC0013430B6021E000BF0000321000003110ED
:1013FC00000022100000211000001210000011103B
:10140C00001002400000014000080140000C0140A7
:10141C000010014000140140000401400B4B1A68FD
:10142C00BB69DB43094913400B607B6A01337B6268
:10143C003B681A687B6A22FA03F3002B7FF48EAEAA
:10144C0000BF00BF2C37BD4680BC70470004014074
:10145C0080B485B000AF78600B467B807B689A685F
:10146C007B881340002B02D00123FB7301E0002387
:10147C00FB73FB7B18461437BD4680BC704780B4A9
:10148C0083B000AF78600B467B8013467B707B7813
:10149C00002B03D07A887B681A6103E07B881A04DE
:1014AC007B681A6100BF0C37BD4680BC704780B4A6
:1014BC0085B000AF78600B467B807B68DB68FB6097
:1014CC007A88FB6813401A04FB68D9437B880B406D
:1014DC001A437B681A6100BF1437BD4680BC704745
:1014EC0080B582B000AF0346FB80084B5A69FB887D
:1014FC001340002B06D0054AFB885361FB88184625
:10150C00FEF716FF00BF0837BD4680BD0004014042
:10151C0080B586B000AF78607B68002B01D10123C9
:10152C0072E27B681B6803F00103002B00F08780DC
:10153C00924B5B6803F00C03042B0CD08F4B5B6855
:10154C0003F00C03082B12D18C4B5B6803F4803333
:10155C00B3F5803F0BD1894B1B6803F40033002B90
:10156C006CD07B685B68002B68D101234CE27B68F4
:10157C005B68B3F5803F06D1804B1B687F4A43F410
:10158C00803313602EE07B685B68002B0CD17B4BA7
:10159C001B687A4A23F480331360784B1B68774AB4
:1015AC0023F4802313601DE07B685B68B3F5A02FE8
:1015BC000CD1724B1B68714A43F4802313606F4B40
:1015CC001B686E4A43F4803313600BE06B4B1B6853
:1015DC006A4A23F480331360684B1B68674A23F410
:1015EC00802313607B685B68002B13D0FFF770FCC3
:1015FC00386108E0FFF76CFC02463B69D31A642B98
:10160C0001D9032300E25D4B1B6803F40033002B6C
:10161C00F0D014E0FFF75CFC386108E0FFF758FCF1
:10162C0002463B69D31A642B01D90323ECE1534BDB
:10163C001B6803F40033002BF0D100E000BF7B6883
:10164C001B6803F00203002B63D04C4B5B6803F068
:10165C000C03002B0BD0494B5B6803F00C03082BDD
:10166C001CD1464B5B6803F48033002B16D1434BE3
:10167C001B6803F00203002B05D07B681B69012B50
:10168C0001D00123C0E13D4B1B6823F0F8027B68BD
:10169C005B69DB00394913430B603AE07B681B69DB
:1016AC00002B20D0364B01221A60FFF711FC386159
:1016BC0008E0FFF70DFC02463B69D31A022B01D957
:1016CC000323A1E12D4B1B6803F00203002BF0D088
:1016DC002A4B1B6823F0F8027B685B69DB00274907
:1016EC0013430B6015E0264B00221A60FFF7F0FB4A
:1016FC00386108E0FFF7ECFB02463B69D31A022B7A
:10170C0001D9032380E11D4B1B6803F00203002B5E
:10171C00F0D17B681B6803F00803002B3AD07B6880
:10172C009B69002B19D0174B01221A60FFF7D0FBD5
:10173C00386108E0FFF7CCFB02463B69D31A022B59
:10174C0001D9032360E10D4B5B6A03F00203002B0C
:10175C00F0D0012000F09CFA1CE00A4B00221A6029
:10176C00FFF7B6FB38610FE0FFF7B2FB02463B69AF
:10177C00D31A022B08D9032346E100BF0010024004
:10178C000000424280044242924B5B6A03F0020327
:10179C00002BE9D17B681B6803F00403002B00F0DD
:1017AC00A6800023FB758B4BDB6903F08053002B69
:1017BC000DD1884BDB69874A43F08053D361854B4D
:1017CC00DB6903F08053BB60BB680123FB75824B64
:1017DC001B6803F48073002B18D17F4B1B687E4A67
:1017EC0043F480731360FFF773FB386108E0FFF775
:1017FC006FFB02463B69D31A642B01D9032303E127
:10180C00754B1B6803F48073002BF0D07B68DB688E
:10181C00012B06D16F4B1B6A6E4A43F00103136216
:10182C002DE07B68DB68002B0CD16A4B1B6A694A84
:10183C0023F001031362674B1B6A664A23F004030F
:10184C0013621CE07B68DB68052B0CD1614B1B6AB7
:10185C00604A43F0040313625E4B1B6A5D4A43F01B
:10186C00010313620BE05B4B1B6A5A4A23F0010322
:10187C001362584B1B6A574A23F0040313627B68AC
:10188C00DB68002B15D0FFF723FB38610AE0FFF76C
:10189C001FFB02463B69D31A41F28832934201D9AD
:1018AC000323B1E04B4B1B6A03F00203002BEED079
:1018BC0014E0FFF70DFB38610AE0FFF709FB024665
:1018CC003B69D31A41F28832934201D903239BE03E
:1018DC00404B1B6A03F00203002BEED1FB7D012B66
:1018EC0005D13C4BDB693B4A23F08053D3617B68C9
:1018FC00DB69002B00F08780364B5B6803F00C0330
:10190C00082B61D07B68DB69022B46D1334B00225C
:10191C001A60FFF7DDFA386108E0FFF7D9FA0246E2
:10192C003B69D31A022B01D903236DE0294B1B68A9
:10193C0003F00073002BF0D17B681B6AB3F5803F7A
:10194C0008D1244B5B6823F400327B689B682149E7
:10195C0013434B601F4B5B6823F474127B68196A4A
:10196C007B685B6A0B431B4913434B601B4B012287
:10197C001A60FFF7ADFA386108E0FFF7A9FA0246E2
:10198C003B69D31A022B01D903233DE0114B1B6891
:10199C0003F00073002BF0D035E0104B00221A60DE
:1019AC00FFF796FA386108E0FFF792FA02463B69B6
:1019BC00D31A022B01D9032326E0064B1B6803F034
:1019CC000073002BF0D11EE07B68DB69012B07D183
:1019DC00012319E0001002400070004060004242F8
:1019EC000B4B5B68FB60FB6803F480327B681B6A03
:1019FC009A4206D1FB6803F470127B685B6A9A42C8
:101A0C0001D0012300E0002318461837BD4680BDE5
:101A1C000010024080B584B000AF786039607B68FC
:101A2C00002B01D10123D0E06A4B1B6803F00703A4
:101A3C003A689A4210D9674B1B6823F00702654934
:101A4C003B6813430B60634B1B6803F007033A6856
:101A5C009A4201D00123B8E07B681B6803F00203B3
:101A6C00002B20D07B681B6803F00403002B05D0EF
:101A7C00594B5B68584A43F4E06353607B681B68BE
:101A8C0003F00803002B05D0534B5B68524A43F418
:101A9C0060535360504B5B6823F0F0027B689B688B
:101AAC004D4913434B607B681B6803F00103002B0B
:101ABC0040D07B685B68012B07D1474B1B6803F454
:101ACC000033002B15D101237FE07B685B68022B70
:101ADC0007D1414B1B6803F00073002B09D1012384
:101AEC0073E03D4B1B6803F00203002B01D1012373
:101AFC006BE0394B5B6823F003027B685B6836490B
:101B0C0013434B60FFF7E4F9F8600AE0FFF7E0F9E4
:101B1C000246FB68D31A41F28832934201D903235F
:101B2C0053E02D4B5B6803F00C027B685B689B00F9
:101B3C009A42EBD1274B1B6803F007033A689A4291
:101B4C0010D2244B1B6823F0070222493B68134335
:101B5C000B60204B1B6803F007033A689A4201D0D4
:101B6C00012332E07B681B6803F00403002B08D0D0
:101B7C00194B5B6823F4E0627B68DB6816491343FE
:101B8C004B607B681B6803F00803002B09D0124BD9
:101B9C005B6823F460527B681B69DB000E491343BE
:101BAC004B6000F021F802460B4B5B681B0903F0FD
:101BBC000F030A49CB5C22FA03F3094A1360094B61
:101BCC001B681846FFF742F9002318461037BD462C
:101BDC0080BD00BF0020024000100240102700080A
:101BEC004C0000205000002080B487B000AF0023D0
:101BFC00FB600023BB6000237B6100237B60002320
:101C0C003B611E4B5B68FB60FB6803F00C03042B11
:101C1C0002D0082B03D027E0194B3B6127E0FB686F
:101C2C009B0C03F00F03174AD35C7B60FB6803F437
:101C3C008033002B10D0114B5B685B0C03F001035D
:101C4C00114AD35CBB607B680D4A03FB02F2BB6894
:101C5C00B2FBF3F37B6104E07B680C4A02FB03F3F9
:101C6C007B617B693B6102E0054B3B6100BF3B69DB
:101C7C0018461C37BD4680BC704700BF00100240A0
:101C8C0000127A00202700083027000800093D00C8
:101C9C0080B485B000AF78600A4B1B680A4AA2FB7F
:101CAC0003235B0A7A6802FB03F3FB6000BFFB684B
:101CBC005A1EFA60002BF9D100BF00BF1437BD4685
:101CCC0080BC70474C000020D34D621080B582B0B0
:101CDC0000AF78607B68002B01D1012341E07B6869
:101CEC0093F83D30DBB2002B06D17B68002283F8E1
:101CFC003C207868FEF7DAFF7B68022283F83D20EF
:101D0C007B681A687B6804331946104600F092F918
:101D1C007B68012283F846207B68012283F83E20F1
:101D2C007B68012283F83F207B68012283F84020E6
:101D3C007B68012283F841207B68012283F84220D2
:101D4C007B68012283F843207B68012283F84420BE
:101D5C007B68012283F845207B68012283F83D20B3
:101D6C00002318460837BD4680BD000080B584B0FE
:101D7C0000AF786039603B68002B09D17B6893F821
:101D8C003E30DBB2012B14BF01230023DBB222E077
:101D9C003B68042B09D17B6893F83F30DBB2012BF5
:101DAC0014BF01230023DBB215E03B68082B09D1DB
:101DBC007B6893F84030DBB2012B14BF0123002366
:101DCC00DBB208E07B6893F84130DBB2012B14BF27
:101DDC0001230023DBB2002B01D001235EE03B6822
:101DEC00002B04D17B68022283F83E2013E03B6871
:101DFC00042B04D17B68022283F83F200BE03B6864
:101E0C00082B04D17B68022283F8402003E07B6816
:101E1C00022283F841207B681B680122396818462E
:101E2C0000F0F2FA7B681B681E4A934207D17B686C
:101E3C001B685A6C7B681B6842F400425A647B68CE
:101E4C001B68184A93420ED07B681B68B3F1804F15
:101E5C0009D07B681B68144A934204D07B681B68CA
:101E6C00124A934211D17B681B689B6803F00703ED
:101E7C00FB60FB68062B10D07B681B681A687B68BC
:101E8C001B6842F001021A6007E07B681B681A6845
:101E9C007B681B6842F001021A6000231846103759
:101EAC00BD4680BD002C01400004004000080040ED
:101EBC0080B586B000AFF860B9607A600023FB751E
:101ECC00FB6893F83C30012B01D10223AEE0FB6898
:101EDC00012283F83C207B680C2B00F29F8001A22E
:101EEC0052F823F0251F000829200008292000089B
:101EFC0029200008651F0008292000082920000857
:101F0C0029200008A71F0008292000082920000804
:101F1C0029200008E71F0008FB681B68B9681846F1
:101F2C0000F0EAF8FB681B689A69FB681B6842F0D2
:101F3C0008029A61FB681B689A69FB681B6822F0AF
:101F4C0004029A61FB681B689969BB681A69FB6893
:101F5C001B680A439A6164E0FB681B68B968184601
:101F6C0000F030F9FB681B689A69FB681B6842F447
:101F7C0000629A61FB681B689A69FB681B6822F413
:101F8C0080629A61FB681B689969BB681B691A02BD
:101F9C00FB681B680A439A6143E0FB681B68B968DD
:101FAC00184600F079F9FB681B68DA69FB681B6856
:101FBC0042F00802DA61FB681B68DA69FB681B688F
:101FCC0022F00402DA61FB681B68D969BB681A69E4
:101FDC00FB681B680A43DA6123E0FB681B68B9687D
:101FEC00184600F0C3F9FB681B68DA69FB681B68CC
:101FFC0042F40062DA61FB681B68DA69FB681B68F3
:10200C0022F48062DA61FB681B68D969BB681B69C2
:10201C001A02FB681B680A43DA6102E00123FB75B4
:10202C0000BFFB68002283F83C20FB7D1846183764
:10203C00BD4680BD80B485B000AF786039607B68E8
:10204C001B68FB607B68294A93420BD07B68B3F119
:10205C00804F07D07B68264A934203D07B68254A81
:10206C00934208D1FB6823F07003FB603B685B680C
:10207C00FA681343FB607B681C4A93420BD07B6865
:10208C00B3F1804F07D07B68194A934203D07B6829
:10209C00184A934208D1FB6823F44073FB603B68F9
:1020AC00DB68FA681343FB60FB6823F080023B6833
:1020BC005B691343FB607B68FA681A603B689A683B
:1020CC007B68DA623B681A687B689A627B68074AAD
:1020DC00934203D13B681A697B681A637B680122BF
:1020EC005A6100BF1437BD4680BC7047002C0140BC
:1020FC00000400400008004080B487B000AF786056
:10210C0039607B681B6A7B617B681B6A23F0010268
:10211C007B681A627B685B683B617B689B69FB60D0
:10212C00FB6823F07003FB60FB6823F00303FB6088
:10213C003B681B68FA681343FB607B6923F002035E
:10214C007B613B689B687A6913437B617B681C4AA3
:10215C0093420CD17B6923F008037B613B68DB68FD
:10216C007A6913437B617B6923F004037B617B6891
:10217C00134A934211D13B6923F480733B613B6951
:10218C0023F400733B613B685B693A6913433B6121
:10219C003B689B693A6913433B617B683A695A60B7
:1021AC007B68FA689A613B685A687B685A637B68FB
:1021BC007A691A6200BF1C37BD4680BC704700BFED
:1021CC00002C014080B487B000AF786039607B6828
:1021DC001B6A7B617B681B6A23F010027B681A62A6
:1021EC007B685B683B617B689B69FB60FB6823F4E5
:1021FC00E043FB60FB6823F44073FB603B681B68A7
:10220C001B02FA681343FB607B6923F020037B619C
:10221C003B689B681B017A6913437B617B681D4A91
:10222C0093420DD17B6923F080037B613B68DB68B3
:10223C001B017A6913437B617B6923F040037B614B
:10224C007B68144A934213D13B6923F480633B614E
:10225C003B6923F400633B613B685B699B003A6913
:10226C0013433B613B689B699B003A6913433B6199
:10227C007B683A695A607B68FA689A613B685A686D
:10228C007B689A637B687A691A6200BF1C37BD460B
:10229C0080BC7047002C014080B487B000AF7860E0
:1022AC0039607B681B6A7B617B681B6A23F48072D4
:1022BC007B681A627B685B683B617B68DB69FB60EF
:1022CC00FB6823F07003FB60FB6823F00303FB60E7
:1022DC003B681B68FA681343FB607B6923F400734B
:1022EC007B613B689B681B027A6913437B617B684B
:1022FC001D4A93420DD17B6923F400637B613B68DB
:10230C00DB681B027A6913437B617B6923F480636E
:10231C007B617B68144A934213D13B6923F480534D
:10232C003B613B6923F400533B613B685B691B01D8
:10233C003A6913433B613B689B691B013A69134340
:10234C003B617B683A695A607B68FA68DA613B6882
:10235C005A687B68DA637B687A691A6200BF1C373B
:10236C00BD4680BC704700BF002C014080B487B0D4
:10237C0000AF786039607B681B6A3B617B681B6AC5
:10238C0023F480527B681A627B685B687B617B6894
:10239C00DB69FB60FB6823F4E043FB60FB6823F420
:1023AC004073FB603B681B681B02FA681343FB60BD
:1023BC003B6923F400533B613B689B681B033A6900
:1023CC0013433B617B680F4A934209D17B6923F429
:1023DC0080437B613B685B699B017A6913437B613A
:1023EC007B687A695A607B68FA68DA613B685A687C
:1023FC007B681A647B683A691A6200BF1C37BD4659
:10240C0080BC7047002C014080B487B000AFF860EE
:10241C00B9607A60BB6803F01F03012202FA03F370
:10242C007B61FB681A6A7B69DB431A40FB681A62A2
:10243C00FB681A6ABB6803F01F03796801FA03F39F
:10244C001A43FB681A6200BF1C37BD4680BC70473C
:10245C0080B485B000AF786039607B6893F83C300D
:10246C00012B01D1022346E07B68012283F83C203A
:10247C007B68022283F83D207B681B685B68FB60ED
:10248C007B681B689B68BB60FB6823F07003FB6078
:10249C003B681B68FA681343FB607B681B68FA682F
:1024AC005A607B681B68164A93420ED07B681B6887
:1024BC00B3F1804F09D07B681B68124A934204D059
:1024CC007B681B68104A93420CD1BB6823F08003D5
:1024DC00BB603B685B68BA681343BB607B681B6876
:1024EC00BA689A607B68012283F83D207B680022E1
:1024FC0083F83C20002318461437BD4680BC704737
:10250C00002C0140000400400008004080B485B05D
:10251C0000AF786039600023FB607B6893F83C3037
:10252C00012B01D102233DE07B68012283F83C2082
:10253C00FB6823F0FF023B68DB681343FB60FB681E
:10254C0023F440723B689B681343FB60FB6823F4E5
:10255C0080623B685B681343FB60FB6823F400629A
:10256C003B681B681343FB60FB6823F480523B6899
:10257C001B691343FB60FB6823F400523B685B69E7
:10258C001343FB60FB6823F480423B68DB69134315
:10259C00FB607B681B68FA685A647B68002283F8CE
:1025AC003C20002318461437BD4680BC70470346B8
:1025BC000244934200D1704703F8011BF9E7000075
:1025CC0070B500260C4D0D4C641BA410A64209D10D
:1025DC0000F01AF800260A4D0A4C641BA410A642FF
:1025EC0005D170BD55F8043B98470136EEE755F818
:1025FC00043B98470136F2E73427000834270008DB
:10260C003427000838270008F8B500BFF8BC08BC10
:10261C009E467047F8B500BFF8BC08BC9E46704794
:10262C0043484F4F53452050524F4455435400009C
:10263C0044414C004E41544920424953435549545E
:10264C00000000004D414D412057414645520000CD
:10265C0043484F4F534520414741494E000000002D
:10266C005041592035544B20434F494E0000000037
:10267C005041594D454E54204F4B00004954454D47
:10268C002044454C4956455245443E3E000000000E
:10269C005041594D454E54204D4F444500000000CB
:1026AC0050524F44554354204953204E4F54000030
:1026BC00415641494C4156424C45000050555243FD
:1026CC0048415345205355434345535300000000A4
:1026DC004C455853555300002D3E3E3E57454C43F8
:1026EC004F4D453C3C3C2D0043484F4F53452041FA
:1026FC004E4F54484552000050524F4455435400DD
:10270C0000000000000000000000000001020304B3
:10271C000607080902030405060708090A0B0C0D35
:08272C000E0F10100102000065
:042734003101000867
:042738000D01000887
:10273C00010000002C2600083C260008402600085A
:10274C00502600086C2600087C2600088826000805
:10275C009C260008AC260008BC260008C8260008E9
:10276C00DC260008E4260008F426000804270008EC
:10277C000C2700080C270008010000000024F400BE
:08278C00100000000100000034
:0400000508000DE101
:00000001FF
